:100000000C942A000C9459070C9447000C94470058
:100010000C9447000C9447000C9447000C94470044
:100020000C9447000C9447000C946B0A0C94B90A8A
:100030000C9447000C9447000C9447000C94470024
:100040000C9447000C9447000C9447000C94470014
:100050000C94470011241FBECFE5D8E0DEBFCDBF12
:1000600011E0A8E6B1E001C01D92AA37B107E1F79F
:1000700011E0A0E6B0E0ECE0F7E102C005900D92DF
:10008000A836B107D9F70E948B090C94840B0C9405
:100090000000A0E0B0E0EFE4F0E00C944D0BDC01D8
:1000A0002B01FA019C91923008F439C1EB0188814F
:1000B000823008F433C1943069F4843009F02FC1E0
:1000C00011969C9111978981981709F428C1A0E68F
:1000D000B0E025C1843009F421C18230A9F4923006
:1000E00009F01DC19A01AD0188E0EA010990AE0155
:1000F000E90109929E018150C1F7E20189811196BF
:100100009C918923818308C1923009F407C112961A
:100110002D903C901397EB018A819B811496AD90B2
:10012000BD90CD90DC901797EC80FD800E811F81F3
:100130009101281B390BB90137FF04C066277727C7
:10014000621B730B603271050CF061C0121613064E
:100150006CF537014801062E04C096948794779475
:1001600067940A94D2F721E030E040E050E004C008
:10017000220F331F441F551F6A95D2F7215030407C
:10018000404050402E213F2140235123211531056D
:100190004105510521F021E030E040E050E07901D7
:1001A0008A01E628F728082919293CC0232BD1F118
:1001B000260E371E35014601062E04C096948794FC
:1001C000779467940A94D2F721E030E040E050E061
:1001D00004C0220F331F441F551F6A95D2F72150C8
:1001E0003040404050402A213B214C215D212115C7
:1001F00031054105510521F021E030E040E050E0BB
:1002000059016A01A628B728C828D9280BC0821529
:1002100093052CF01C01AA24BB24650103C0EE2425
:10022000FF24870111969C91D20111968C91981709
:1002300009F445C0992339F0A80197012A193B090F
:100240004C095D0906C0A60195012E193F09400B16
:10025000510B57FD08C011823382228224833583DB
:10026000468357831DC081E08183338222828827A1
:100270009927DC01821B930BA40BB50B8483958318
:10028000A683B7830DC0220F331F441F551F24833D
:100290003583468357838281938101979383828339
:1002A0002481358146815781DA01C9010197A1096D
:1002B000B1098F5F9F4FAF4FBF4328F30BC09183AE
:1002C00033822282EA0CFB1C0C1D1D1DE482F58288
:1002D0000683178383E0808324813581468157819B
:1002E00057FF1AC0C901AA2797FDA095BA2F8170A0
:1002F0009070A070B0705695479537952795822BD2
:10030000932BA42BB52B84839583A683B7838281FB
:100310009381019693838283DF0101C0D201CD01D5
:10032000CDB7DEB7E2E10C94690BA0E2B0E0EBE9F7
:10033000F1E00C94590B69837A838B839C832D8322
:100340003E834F835887E9E0EE2EF12CEC0EFD1E24
:10035000CE010196B7010E9423058E010F5E1F4F4B
:10036000CE010596B8010E9423058A8991E089276C
:100370008A8BC701B801AE01475E5F4F0E944900FA
:100380000E944E04A096E6E00C94750BA0E2B0E04B
:10039000ECECF1E00C94590B69837A838B839C839A
:1003A0002D833E834F835887F9E0EF2EF12CEC0E1E
:1003B000FD1ECE010196B7010E9423058E010F5E3E
:1003C0001F4FCE010596B8010E942305C701B80151
:1003D000AE01475E5F4F0E9449000E944E04A09606
:1003E000E6E00C94750BA0E2B0E0E9EFF1E00C94CC
:1003F0004D0B69837A838B839C832D833E834F834C
:100400005887CE010196BE01675F7F4F0E9423058A
:10041000CE010596BE016F5E7F4F0E942305998530
:10042000923088F089898230C8F0943019F4823093
:1004300051F404C0843029F4923081F480E690E0D5
:10044000C6C0923049F420E09A858A89981321E049
:100450002A87CE010996BBC0823049F420E09A85F4
:100460008A89981321E02A8BCE014196B0C02D8451
:100470003E844F8458886D887E888F88988CEE24BF
:10048000FF248701AA24BB24650140E050E060E01E
:1004900070E0E0E0F0E0C10181709070892BE9F03C
:1004A000E60CF71C081D191D9A01AB012A0D3B1D16
:1004B0004C1D5D1D80E090E0A0E0B0E0E614F70484
:1004C0000805190520F481E090E0A0E0B0E0BA0151
:1004D000A901480F591F6A1F7B1FAA0CBB1CCC1C0B
:1004E000DD1C97FE08C081E090E0A0E0B0E0A82A03
:1004F000B92ACA2ADB2A3196E032F10549F0660CA6
:10050000771C881C991C5694479437942794C3CF22
:10051000FA85EA892B893C898B859C85280F391FB0
:100520002E5F3F4F17C0CA0181709070892B61F018
:1005300016950795F794E79480E090E0A0E0B0E886
:10054000E82AF92A0A2B1B2B76956795579547952C
:100550002F5F3F4F77FDE7CF0CC0440F551F661F3D
:10056000771F17FD4160EE0CFF1C001F111F21506B
:100570003040403090E0590790E0690790E47907F7
:1005800060F32B8F3C8FDB01CA018F779070A070D6
:10059000B07080349105A105B10561F447FD0AC032
:1005A000E114F1040105110529F0405C5F4F6F4F24
:1005B0007F4F40781A8EFE1711F081E08A8F4D8FA1
:1005C0005E8F6F8F78A383E0898FCE0149960E945A
:1005D0004E04A096E2E10C94690BA8E1B0E0E3EFD1
:1005E000F2E00C94590B69837A838B839C832D836F
:1005F0003E834F83588789E0E82EF12CEC0EFD1ED8
:10060000CE010196B7010E9423058E010F5E1F4F98
:10061000CE010596B8010E9423058985823040F0FD
:100620008989823028F0C701B8010E949B0501C06A
:1006300081E06896E6E00C94750BA8E1B0E0E3E297
:10064000F3E00C94590B69837A838B839C832D830D
:100650003E834F83588789E0E82EF12CEC0EFD1E77
:10066000CE010196B7010E9423058E010F5E1F4F38
:10067000CE010596B8010E9423058985823040F09D
:100680008989823028F0C701B8010E949B0501C00A
:1006900081E06896E6E00C94750BA8E0B0E0E3E535
:1006A000F3E00C94560B9B01AC0183E08983DA01E3
:1006B000C9018827B7FD83959927AA27BB27B82E9C
:1006C000211531054105510519F482E089833AC0AD
:1006D0008823A9F0203080E0380780E0480780E8D0
:1006E000580729F460E070E080E09FEC30C0EE2411
:1006F000FF248701E21AF30A040B150B02C07901EB
:100700008A018EE1C82ED12CDC82CB82ED82FE8262
:100710000F831887C801B7010E94FF0301971816BD
:10072000190684F4082E04C0EE0CFF1C001F111FD4
:100730000A94D2F7ED82FE820F831887C81AD90A6D
:10074000DC82CB82BA82CE0101960E944E042896AA
:10075000E9E00C94720BACE0B0E0E1EBF3E00C9458
:100760005D0B69837A838B839C83CE010196BE01E6
:100770006B5F7F4F0E9423058D81823061F1823053
:1007800050F1843021F48E81882351F12EC02F81C5
:10079000388537FD20C06E812F3131051CF066236E
:1007A000F9F023C08EE190E0821B930B29853A85F6
:1007B0004B855C8504C056954795379527958A9556
:1007C000D2F76623B1F050954095309521953F4F73
:1007D0004F4F5F4F0EC020E030E040E050E009C0D6
:1007E0002FEF3FEF4FEF5FE704C020E030E040E045
:1007F00050E8B901CA012C96E2E00C94790BEF9213
:10080000FF920F931F937B018C0180E0E81680E03C
:10081000F80681E0080780E0180788F48FEFE816F3
:10082000F1040105110531F028F088E090E0A0E026
:10083000B0E017C080E090E0A0E0B0E012C080E03F
:10084000E81680E0F80680E0080781E0180728F045
:1008500088E190E0A0E0B0E004C080E190E0A0E09A
:10086000B0E020E230E040E050E0281B390B4A0BBA
:100870005B0B04C016950795F794E7948A95D2F719
:10088000F701E859FF4F8081281B310941095109BF
:10089000C9011F910F91FF90EF900895DF92EF92A1
:1008A000FF920F931F93FC01E480F580068117816E
:1008B000D1808081823048F480E090E0A0E1B0E017
:1008C000E82AF92A0A2B1B2BA5C0843009F49FC003
:1008D000823021F4EE24FF24870105C0E114F104E5
:1008E0000105110519F4E0E0F0E096C06281738122
:1008F0009FEF623879070CF05BC022E83FEF261BC0
:10090000370B2A3131052CF020E030E040E050E098
:100910002AC0B801A701022E04C0769567955795A5
:1009200047950A94D2F781E090E0A0E0B0E004C0DF
:10093000880F991FAA1FBB1F2A95D2F70197A109FB
:10094000B1098E219F21A023B1230097A105B105F4
:1009500021F081E090E0A0E0B0E09A01AB01282B0B
:10096000392B4A2B5B2BDA01C9018F779070A0706D
:10097000B07080349105A105B10539F427FF09C095
:10098000205C3F4F4F4F5F4F04C0215C3F4F4F4FA4
:100990005F4FE0E0F0E02030A0E03A07A0E04A0737
:1009A000A0E45A0710F0E1E0F0E079018A0127C0E5
:1009B0006038710564F5FB01E158FF4FD801C701AC
:1009C0008F779070A070B07080349105A105B1054B
:1009D00039F4E7FE0DC080E490E0A0E0B0E004C090
:1009E0008FE390E0A0E0B0E0E80EF91E0A1F1B1FA5
:1009F00017FF05C016950795F794E794319687E0A1
:100A000016950795F794E7948A95D1F705C0EE24DB
:100A1000FF248701EFEFF0E06E2F6795662767955B
:100A2000902F9F77D794DD24D7948E2F8695492FCA
:100A3000462B582F5D29B701CA011F910F91FF90D6
:100A4000EF90DF900895FC01DB014081518122810C
:100A5000622F6F7770E0221F2227221F9381892F38
:100A6000880F822B282F30E0991F9927991F119604
:100A70009C93119721153105A9F541155105610583
:100A8000710511F482E037C082E89FEF13969C93C2
:100A90008E9312979A01AB0167E0220F331F441F18
:100AA000551F6A95D1F783E08C930DC0220F331F39
:100AB000441F551F12968D919C9113970197139681
:100AC0009C938E931297203080E0380780E048078F
:100AD00080E4580758F314962D933D934D935C93FF
:100AE000179708952F3F310579F441155105610598
:100AF000710519F484E08C93089564FF03C081E0CC
:100B00008C9312C01C9210C02F57304013963C9308
:100B10002E93129783E08C9387E0440F551F661F36
:100B2000771F8A95D1F7706414964D935D936D93FA
:100B30007C93179708951F93DC01FB019C919230E1
:100B400008F447C08081823008F443C0943051F4E7
:100B500011961C91843099F58181682F70E0611B9A
:100B600071093FC0843021F0923031F48230B9F104
:100B70008181882389F12DC011961C9111978230B3
:100B8000F1F081811817D9F412962D913C911397A9
:100B9000828193818217930794F028173907BCF05C
:100BA00014968D919D910D90BC91A02D248135813D
:100BB00046815781281739074A075B0718F4112324
:100BC00041F00AC082179307A407B50740F4112328
:100BD00019F061E070E005C06FEF7FEF02C060E0E8
:100BE00070E0CB011F910895813049F0813028F0E9
:100BF000823039F0833041F406C06ABB089567BB88
:100C0000089564BB089561BB0895813009F1813076
:100C100030F08230B9F1833009F065C04CC041300A
:100C200059F42AB381E090E002C0880F991F6A95B9
:100C3000E2F7282B2ABB08952AB381E090E002C096
:100C4000880F991F6A95E2F7809582238ABB0895E1
:100C5000413059F427B381E090E002C0880F991F1A
:100C60006A95E2F7282B27BB0BC027B381E090E001
:100C700002C0880F991F6A95E2F78095822387BB8F
:100C800087B30895413059F424B381E090E002C065
:100C9000880F991F6A95E2F7282B24BB089524B387
:100CA00081E090E002C0880F991F6A95E2F7809575
:100CB000822384BB0895413059F421B381E090E050
:100CC00002C0880F991F6A95E2F7282B21BB08956F
:100CD00021B381E090E002C0880F991F6A95E2F786
:100CE0008095822381BB0895813049F0813028F0BE
:100CF000823039F0833041F406C06BBB089568BB85
:100D0000089565BB089562BB08958FEF0895813003
:100D100051F0813030F0823041F0833079F08FEF44
:100D2000089589B303C086B301C083B390E002C0C5
:100D3000959587956A95E2F78170089580B390E064
:100D400002C0959587956A95E2F781700895813084
:100D500091F0813028F08230C9F0833061F521C0F4
:100D60002BB381E090E002C0880F991F6A95E2F7EB
:100D7000282B2BBB089528B381E090E002C0880F98
:100D8000991F6A95E2F7282B28BB089525B381E0C7
:100D900090E002C0880F991F6A95E2F7282B25BBC7
:100DA000089522B381E090E002C0880F991F6A95F0
:100DB000E2F7282B22BB0895813099F0813028F08A
:100DC0008230D9F0833081F524C02BB381E090E0EC
:100DD00002C0880F991F6A95E2F7809582238BBB2A
:100DE000089528B381E090E002C0880F991F6A95AA
:100DF000E2F78095822388BB089525B381E090E0D7
:100E000002C0880F991F6A95E2F78095822385BBFF
:100E1000089522B381E090E002C0880F991F6A957F
:100E2000E2F78095822382BB0895413019F40E9435
:100E3000A7060895442311F40E94DC06089581302A
:100E400091F0813028F08230C9F0833061F521C003
:100E50002BB381E090E002C0880F991F6A95E2F7FA
:100E600028272BBB089528B381E090E002C0880FAB
:100E7000991F6A95E2F7282728BB089525B381E0DA
:100E800090E002C0880F991F6A95E2F7282725BBDA
:100E9000089522B381E090E002C0880F991F6A95FF
:100EA000E2F7282722BB0895909369018093680197
:100EB00008951F920F920FB60F9211242F933F9314
:100EC0004F935F936F937F938F939F93AF93BF9352
:100ED000EF93FF93E0916801F09169010995FF910B
:100EE000EF91BF91AF919F918F917F916F915F91A2
:100EF0004F913F912F910F900FBE0F901F9018951B
:100F000080EF81BB8FEF82BB089582B3806F82BB7D
:100F100008950E948507949890B3892F86958695A9
:100F2000869580FD02C081E00895892F869586957B
:100F300080FD02C082E00895892F869580FD02C061
:100F400083E0089590FD02C081E408950E94850722
:100F5000959890B3892F86958695869580FD02C0D9
:100F600084E00895892F8695869580FD02C085E0EE
:100F70000895892F869580FD02C086E0089590FD32
:100F800002C082E408950E948507969890B3892F45
:100F900086958695869580FD02C087E00895892F05
:100FA0008695869580FD02C088E0089590B3892FCC
:100FB000869580FD02C089E0089590FD02C083E41B
:100FC00008950E948507979890B3892F86958695F6
:100FD000869580FD02C08AE20895892F86958695C0
:100FE00080FD02C080E00895892F869580FD02C0B3
:100FF00083E2089590FF02C08FEF089584E408957E
:10100000AA9884EF91E028EC30E0F9013197F1F7EC
:101010000197D9F7AA9A08951F93182F8BB3912F90
:10102000907F8F70982B9BBB85B38C7F85BB0E9474
:1010300000088BB31295107F8F70812B8BBB85B30B
:101040008C7F85BB0E9400081F910895882339F486
:10105000603168F4862F80580E940C080895813012
:1010600031F4603120F4862F80540E940C080895DA
:1010700081E00E940C08089580E49CE90197F1F753
:1010800084B3876084BB85B3887F85BB80E395E7A5
:101090000197F1F70E9438088AB3806F8ABB82E01B
:1010A0000E940C0888E20E940C0886E00E940C084E
:1010B00080E80E940C088FE00E940C0808951F939E
:1010C000182F9BB39F70807F892B8BBB85B38C7F40
:1010D00085BB0E94000885B38F701295107F812B0D
:1010E00085BB0E9400081F9108951F93182F8BB392
:1010F000912F907F8F70982B9BBB85B381608D7FE4
:1011000085BB0E9400088BB31295107F8F70812BD6
:101110008BBB85B381608D7F85BB0E9400081F91CA
:1011200008950F931F93CF93DF938C01C0E0D0E01D
:1011300019C021960E947508C031D10529F481E0BB
:1011400060E00E9426080CC0CE018097029740F410
:101150000E94380880E060E00E942608C0E0D0E0ED
:101160000F5F1F4FF8018081882319F7DF91CF911E
:101170001F910F910895EF92FF920F931F93CF93BA
:10118000DF93FC01EE24FF24C0E0D0E020C0CF01BB
:101190006AE070E00E94260B8C01CE0133E0880FDC
:1011A000991F3A95E1F7CC0FDD1FC80FD91FC00F6B
:1011B000D11F0115110529F4209719F40894E11C99
:1011C000F11CCF016AE070E00E94260BFB01309712
:1011D000F1F610C0CE016AE070E00E94260B8C018F
:1011E000CE016AE070E00E94260BEB01802F805D4B
:1011F0000E9475081C161D066CF306C080E30E9451
:1012000075080894E108F108E114F10419F00115DA
:101210001105A1F7DF91CF911F910F91FF90EF90F2
:1012200008958F929F92AF92BF92CF92DF92EF92EA
:10123000FF920F931F93CF93DF935B016C0120E02C
:1012400030E040E050E00E94ED0287FD03C08601DF
:10125000750106C08601750117FB109517F91095E9
:10126000C801B7010E94AB03EB01BE01882777FDDF
:101270008095982F0E944D039B01AC01C801B701D6
:101280000E9495017B018C0120E030E44CE156E4A2
:101290000E94F3010E94AB034B01C601B50120E09F
:1012A00030E040E050E00E94ED0288231CF48DE223
:1012B0000E947508CE010E94BB0881149104D9F0E8
:1012C0008EE20E9475080DC080E30E947508C80177
:1012D000B70120E030E040E251E40E94F3017B01DD
:1012E0008C01C801B7012DEC3CEC4CEC5DE30E9495
:1012F0001D0318164CF7C4010E94BB08DF91CF9163
:101300001F910F91FF90EF90DF90CF90BF90AF9023
:101310009F908F90089583E081BB85E082BB8FB75B
:1013200080688FBF8BB780648BBF85B7836085BFB4
:101330008EEA99E00E94540741E028EC30E009B6BB
:1013400001FEFDCF82B38260842782BB8CED95E0E5
:10135000F9013197F1F70197D9F7F1CF87EB99E0D0
:1013600048EB5BE060E070E00E94100A08950E9484
:101370003A0A82B381608D7F82BB089560936E01CB
:1013800070936F018093700190937101809170014F
:10139000813031F483B78F7B83BF83B7877F07C0EA
:1013A000882331F483B78F7B83BF83B7886083BF83
:1013B00083B790917101892B83BF80916E0188233F
:1013C00019F489B7816004C0813019F489B78E7F20
:1013D00089BF80916F01882321F489B7826089BF1A
:1013E0000895813019F489B78D7F89BF0895FC0174
:1013F00082B7808308958CBF089582BF089590E0DE
:10140000A0E0B0E08093760190937701A0937801FB
:10141000B09379010895FC0180917601808308954D
:101420000F931F938C0184E68CBFCB01BA012AE095
:1014300030E040E050E00E94070B6093760170932B
:101440007701809378019093790110936D01009357
:101450006C01609372017093730180937401909397
:10146000750161E070E080E092E00E94BE091F918A
:101470000F91089561E071E080E092E00E94BE0962
:10148000089590936B0180936A0180917601909109
:101490007701A0917801B0917901809372019093C6
:1014A0007301A0937401B0937501089590936D0139
:1014B00080936C018091760190917701A0917801E1
:1014C000B09179018093720190937301A09374019C
:1014D000B093750108951F920F920FB60F921124C9
:1014E0002F933F934F935F936F937F938F939F932C
:1014F000AF93BF93EF93FF9380917201909173012B
:10150000A0917401B09175010197A109B10980936F
:10151000720190937301A0937401B09375010097C9
:10152000A105B105A9F4E0916C01F0916D01099557
:101530008091760190917701A0917801B091790125
:101540008093720190937301A0937401B09375011D
:10155000FF91EF91BF91AF919F918F917F916F918B
:101560005F914F913F912F910F900FBE0F901F9061
:1015700018951F920F920FB60F9211242F933F933D
:101580004F935F936F937F938F939F93AF93BF938B
:10159000EF93FF938091720190917301A091740178
:1015A000B09175010197A109B109809372019093DF
:1015B0007301A0937401B09375010097A105B10563
:1015C000A9F4E0916A01F0916B010995809176018F
:1015D00090917701A0917801B09179018093720187
:1015E00090937301A0937401B0937501FF91EF91F3
:1015F000BF91AF919F918F917F916F915F914F912B
:101600003F912F910F900FBE0F901F901895629FE2
:10161000D001739FF001829FE00DF11D649FE00DEA
:10162000F11D929FF00D839FF00D749FF00D659F4B
:10163000F00D9927729FB00DE11DF91F639FB00D4A
:10164000E11DF91FBD01CF011124089597FB092E5B
:1016500007260AD077FD04D00CD006D000201AF45B
:10166000709561957F4F0895F6F7909581959F4FFE
:101670000895AA1BBB1B51E107C0AA1FBB1FA617D9
:10168000B70710F0A61BB70B881F991F5A95A9F72B
:1016900080959095BC01CD0108952F923F924F9275
:1016A0005F926F927F928F929F92AF92BF92CF92F2
:1016B000DF92EF92FF920F931F93CF93DF93CDB7FB
:1016C000DEB7CA1BDB0B0FB6F894DEBF0FBECDBF73
:1016D00009942A88398848885F846E847D848C8444
:1016E0009B84AA84B984C884DF80EE80FD800C814D
:1016F0001B81AA81B981CE0FD11D0FB6F894DEBF30
:0C1700000FBECDBFED010895F894FFCF9F
:10170C0000000000000000000001020203030303BC
:10171C000404040404040404050505050505050575
:10172C000505050505050505060606060606060655
:10173C00060606060606060606060606060606063D
:10174C000606060606060606070707070707070725
:10175C00070707070707070707070707070707070D
:10176C0007070707070707070707070707070707FD
:10177C0007070707070707070707070707070707ED
:10178C0007070707070707070808080808080808D5
:10179C0008080808080808080808080808080808BD
:1017AC0008080808080808080808080808080808AD
:1017BC00080808080808080808080808080808089D
:1017CC00080808080808080808080808080808088D
:1017DC00080808080808080808080808080808087D
:1017EC00080808080808080808080808080808086D
:1017FC00080808080808080808080808080808085D
:08180C00080808080808080894
:00000001FF
